:020000040800F2
:1000000098090020A1010008F9220008AD2100088C
:10001000F5220008E9140008392A00080000000051
:10002000000000000000000000000000752500082E
:100030000520000800000000E5230008B9010008C1
:10004000BB010008BB010008BB010008BB010008A0
:10005000BB010008BB010008BB010008BB01000890
:10006000BB010008BB010008BB010008A91B000878
:10007000BB010008BB010008C11B0008BB01000850
:10008000BB010008E51B0008BB010008BB0100081C
:10009000A9290008BB010008BB010008BB0100083A
:1000A000BB010008BB010008BB010008BB01000840
:1000B000BB010008BB010008BB010008BB01000830
:1000C000BB010008BB010008BB010008BB01000820
:1000D000BB010008E9260008B5270008BB0100089D
:1000E000BB010008BB010008BB01000800F002F8DA
:1000F00000F047F80AA090E8000C82448344AAF17B
:100100000107DA4501D100F03CF8AFF2090EBAE878
:100110000F0013F0010F18BFFB1A43F0010318473B
:10012000FC4400001C450000103A24BF78C878C188
:10013000FAD8520724BF30C830C144BF04680C60ED
:10014000704700000023002400250026103A28BF35
:1001500078C1FBD8520728BF30C148BF0B60704739
:10016000662904F00E82002070471FB500F02CFBBA
:1001700004000020002103F02BFAE0601FBD10B541
:1001800010BD00F01DFC1146FFF7EFFF02F0FEFC72
:1001900000F03BFC03B4FFF7F2FF03BC02F069FC84
:1001A0000948804709480047FEE7FEE7FEE7FEE70B
:1001B000FEE7FEE7FEE7FEE7FEE7FEE70448054947
:1001C000054A064B7047000089260008ED0000082C
:1001D0009803002098090020980500209805002029
:1001E000704700000FB41CB5074B06AA7B44694654
:1001F0000090059800F0CFFA0020694600F0DEFA82
:100200001CBC5DF814FB0000CD05000070B5044671
:1002100085690068C10601D5302600E02026C007A8
:1002200007D070BDD4E9012130469047206A401CB8
:1002300020626D1EF6D570BD70B5044685690078E4
:10024000C00707D170BDD4E9012120209047206A62
:10025000401C20626D1EF6D570BD2DE9F0474FF0B1
:10026000000A89460446C0F820A02046E168884775
:10027000002876D0252806D0D4E901219047206AAD
:10028000401C2062F1E7E168204600258847C4F859
:100290001CA006460027C4F818A02A2E09D0304614
:1002A00002F0E0FB38B304EB8708303EC8F8186072
:1002B00019E059F8041B204604EB87029161E168BC
:1002C0008847012F064618D1E069002820DA25F07A
:1002D00020051DE0D8F8180000EB800006EB400078
:1002E0003038C8F818002046E1688847064602F012
:1002F000B9FB0028EED1012F0AD02E2E08D12046BE
:10030000E16888477F1C0646022F45F02005C4DBC4
:10031000A069002803DA404245F00105A061E80722
:1003200001D025F01005B6B1A6F14100192802D878
:10033000203645F400654A463146204625604D4644
:10034000FFF70EFF58B1012806D0ED1D25F007007C
:1003500000F1080989E704E005F1040985E7304662
:100360008AE7206ABDE8F08770477047704770479A
:1003700070472DE9FF4F0C461E464FF0FF378BB0FC
:10038000D2E90001DDF860800A908A46C1F30A557F
:1003900005B93D46002108464FF00000BAF1000FB4
:1003A00000F4400005DA00EB80004FF4400101EA60
:1003B00050004FEA9059B9F1010F00DDB9460A9893
:1003C00050EA4A000ED044F61050A5F2FF354543DE
:1003D0002F14B8F1000F1ED07542291E1EDDC9F181
:1003E00000021CE0B8F1010F4FF0000001D03021F5
:1003F00003E0F24305E02154401CB042FBDB3046F1
:100400000022002121540B99C1F80880C1E9002085
:100410000FB0BDE8F08FBD1B6D1CDEE74A4600DA69
:10042000694206A800F05AFA06AB93E8070003AB4E
:1004300083E8070050460A9900F02EFB8DE807007C
:10044000A0F500501F3800900398002D09DD42F2FE
:100450001F014A46084403A90390684600F08DFD39
:1004600008E0A0F500504A461F3803A903906846EB
:1004700000F097FD8DE807000004000C03D04FF05A
:10048000FF30410800E01046B8F1000F03D0002211
:10049000009215461EE0751E05D400F099F9303221
:1004A00062556D1EF9D5B3460122084302D00022E1
:1004B0007F1C04E02078302801D100227F1E002A12
:1004C000099786D01DE0112D07DA00F081F930324E
:1004D00062556D1C50EA0102F5D1084302D0009824
:1004E000C8B10EE00021681E05E0235C625C635425
:1004F0002254401E491C8142F7DBAB46A81B401E1C
:100500000990002004F80B000B98099AC0F80880A5
:10051000C0E9002B7CE711264FF0000859E72DE9D0
:10052000F04F88460446D21D22F0070191B0D1E970
:100530000001CDE90A0102F081FA02460B98C00FD2
:1005400001D02D2007E02068810701D52B2002E093
:10055000202101EAC000032A099001D0072A05DB07
:1005600003464146204600F079F90BE120788006E9
:1005700001D5E06900E00620B8F1650F814606D09C
:10058000B8F1660F18D0B8F1670F70D131E00020D4
:10059000B9F1110F009001DB112301E009F1010312
:1005A0000AAA01A90CA8FFF7E4FEDDE90C700026F9
:1005B00009F10105834647E001204B4600904FF0CA
:1005C00000470AAA01A90CA8FFF7D3FEDDE90DB088
:1005D0000C995D46002610B909F101000D18B9EB20
:1005E000050003D4C0F1FF3609F10105A5EB0900B0
:1005F0002BE0B9F1010F01DA4FF001090020B9F148
:10060000110F0090484601DD112300E003460AAABD
:1006100001A90CA8FFF7ADFEDDE90C704D460026E0
:100620008346207800070AD4AB4500DA5D4601A86E
:10063000012D04DD411911F8011C302907D04F4567
:1006400002DA17F1040F04DA012082460FE06D1E72
:10065000EEE7002F02DCED1B3E4403E0781CA842CD
:1006600000DD7D1CB81B00F1010A4FF00047207827
:10067000000703D4AA4501DB4FF0FF3A0021B7F190
:10068000004F0DF143088DF8431024D002202B2396
:10069000002F01DA7F422D230A21021EA0F1010062
:1006A00000DC5FB197FBF1FC97FBF1F201FB1C7CD6
:1006B00017460CF1300C08F801CDEEE7A8F1010067
:1006C00003702188090501D5452100E06521A0F1CD
:1006D000010800F8011C09980FA9A1EB0807FF1DEC
:1006E00000B10120411901EBEA70A1693844081AF0
:1006F000401EA0612078C00602D42046FFF786FD88
:10070000099828B1D4E901219047206A401C206251
:100710002078C00622D52046FFF778FD1EE0002E87
:1007200004DBB34502DD01A8805D00E03020D4E9A0
:1007300001219047206A401C2062761CAAF101002A
:100740005FEA000A0AD100F03FF8C0680168405C27
:10075000D4E901219047206A401C2062281EA5F19F
:100760000105DCDC07E0D4E9012118F8010B904712
:10077000206A401C2062381EA7F10107F3DC2046E6
:10078000FFF75AFD032011B043E6000001694A1C3F
:1007900002610878704700B58FB0CDE901310021C2
:1007A000059105497944CDE9031011466846FFF7E4
:1007B00054FD0FB000BD0000E5FFFFFF0A6802F81E
:1007C000010B0A6070470000004870475803002082
:1007D00030B5B0F10A024FEA900E71F100034EEA13
:1007E000817EB0EB0E0061EB91014FEA101E4EEAE4
:1007F000017E10EB0E0041EB11114FEA102E4EEA74
:10080000016E10EB0E0041EB11214FEA104E4EEA43
:10081000014E10EB0E0041EB1141401841F1000177
:100820004FEAD00040EA41704FEAD10110EB800559
:100830004FEA810444EA907444EB01046D1944EBDF
:100840000404521BA3414FF0000348BF0A3200D5F5
:1008500030BD401C41F1000130BD00002DE9F041E8
:100860001F46044603260168072A01F4006004DBE2
:1008700008B116A505E016A503E008B115A500E02E
:1008800015A521F010002060A069C01EA0610FB165
:10089000401EA0612046FFF7B9FC4FB1D4E9012109
:1008A00038469047206A401C2062C01C206206E047
:1008B000206AFAE7D4E9012115F8010B9047761E6A
:1008C000F8D22046FFF7B8FCBDE8F0814E414E005B
:1008D0006E616E00494E4600696E66002DE9F04774
:1008E000814616468AB0334878440DC88DE80D001D
:1008F00030487844801C03AC0DC884E80D0041F6F4
:100900009B300844372190FBF1F290FBF1F5A5F103
:10091000800501FB12041B3C02D56442012000E06B
:100920000020DFF890A080460027FA44AAF1BE0A12
:100930000DE0E00709D03246684607EB47010AEBB5
:10094000810100F02EFB8DE8070064107F1C002C55
:10095000EFD1184F7F44AC3F18E0E80714D007EB05
:1009600004100DF1180A90E80E008AE80E00C06825
:10097000F04201D198190890324606A903A800F068
:1009800010FB03AB83E807006D10641C002DE4D15D
:1009900032466946B8F1000F03A802D000F0EDFA24
:1009A00001E000F0FEFAC9E90001C9F808200AB028
:1009B000BDE8F087183D000000487047380300206C
:1009C0007546FFF7F9FFAE4605006946534620F02D
:1009D0000700854618B020B5FFF7F0FBBDE82040C2
:1009E0004FF000064FF000074FF000084FF0000BEB
:1009F00021F00701AC46ACE8C009ACE8C009ACE89E
:100A0000C009ACE8C0098D4670470446AFF30080CA
:100A10002046FFF7BFFB00004FF0013C50F8042BCD
:100A200051F8043B9A4221D1A2EB0C03934313EA01
:100A3000CC1317D150F8042B51F8043B9A4215D12E
:100A4000A2EB0C03934313EACC130BD150F8042B05
:100A500051F8043B9A4209D1A2EB0C03934313EAE9
:100A6000CC13DBD04FF00000704700BFD01A01BAA2
:100A7000B1FA81F101F0180122FA01F0CB40C1F185
:100A80002001DBB2C0B2C01A2CFA01F3D11A914393
:100A900011EAC311E6D170475FEA400C08BF91F03C
:100AA000000F4FEA8C234FEAC12243EA51514FEA2B
:100AB0001C5018BF00F5F0404FEA300018BF41F05D
:100AC00000415FEA6C5C00F02980BCF1FF3F08BF89
:100AD00040F080407047130C06BF12044FF0100C1A
:100AE0004FF0000C130E04BF12020CF1080C130F90
:100AF00004BF12010CF1040C930F04BF92000CF11F
:100B0000020CD30F04BF52000CF1010C11464FF040
:100B10000002A0F11F00A0EB0C00704711F0004F85
:100B200008BF704731F000413FF4D5AF0B0C06BF52
:100B300009044FF0100C4FF0000C0B0E04BF09021B
:100B40000CF1080C0B0F04BF09010CF1040C8B0F06
:100B500004BF89000CF1020CCB0F04BF49000CF15B
:100B6000010CCCF12003A0EB0C0022FA03F302FAF3
:100B70000CF241EA030100F10100704720F07F4CC4
:100B800080EA030023F07F47ACEB070303F57C53B7
:100B900000F0004003F1FF032DE980494FEA154BB7
:100BA00009B44FEA144325EA0B4E24EA03480FF236
:100BB000042606EB132749083E785FEA320203FB5E
:100BC0000667C7F5000707FB06F64FEA54374FEAFA
:100BD000D64606F1020607FB066CCCF1005C4FEA34
:100BE0001C472CEA074C07FB06F40CFB06F504EB4C
:100BF00015464FEA961634BF00204FF000404FEAEA
:100C0000D13706FB07FC4FEA1C4C0CFB0BF7D21B41
:100C100003FB0CF761EB07010CFB0EF7B0EB074091
:100C200072EB17420CFB08F734BFA2EB0742B2EBA2
:100C3000074261EB17414FEA0C444FEA910706FB6C
:100C400007FC4FEA1C4C0CFB0BF7B0EBC74072EBF8
:100C5000573203FB0CF734BFA2EBC742B2EBC742DB
:100C600061EB57310CFB0EF7B0EBC70072EB57721C
:100C70000CFB08F734BFA2EBC702B2EBC70261EB73
:100C80005771039F4FEA816141EA921104EBCC0452
:100C90004FEAD1374FEA826206FB07FC42EA901224
:100CA0004FEA80604FEA1C4C0CFB0BF7D21B03FB96
:100CB0000CF761EB07010CFB0EF7B0EB074072EB92
:100CC00017420CFB08F734BFA2EB0742B2EB074216
:100CD00061EB17414FEA8C554FEA910704EB9C24D6
:100CE00006FB07FC4FEA1C4C0CFB0BF7B0EBC740B4
:100CF00072EB573203FB0CF734BFA2EBC742B2EBE7
:100D0000C74261EB57310CFB0EF7B0EBC70072EB3B
:100D100057720CFB08F734BFA2EBC702B2EBC70255
:100D200061EB577115EB4C254FEA816141EA921155
:100D30004FEA82624FEAD13742EA901206FB07FC83
:100D400044F100044FEA80604FEA1C4C0CFB0BF7A7
:100D5000D21B03FB0CF761EB07010CFB0EF7B0EBAA
:100D6000074072EB17420CFB08F734BFA2EB0742B7
:100D7000B2EB074261EB174115EB1C154FEA8131CD
:100D800041EA92414FEA823242EA90424FEA803091
:100D90004FEA0C7644F1000448EA03434EEA0B485C
:100DA0004FF0000EB2EB080C71EB030724BF624654
:100DB00039464EEB0E0E4FF0000B001852414941E0
:100DC0004BEB0B0BB2EB080C71EB03077BF1000B49
:100DD00024BF624639464EEB0E0E4FF0000B001852
:100DE000524149414BEB0B0BB2EB080C71EB030783
:100DF0007BF1000B24BF624639464EEB0E0E51EAE2
:100E0000020718BF46F0010616EB0E7655F10002F8
:100E100054F1000103D5BDE88901BDE80088BDE8B3
:100E20008901BDE80048B619524141EB0101A3F127
:100E30000103704780807F7E7D7C7B7A797877762E
:100E400076757473727171706F6E6E6D6C6C6B6AA7
:100E50006A69686867666665646463636261616045
:100E6000605F5F5E5E5D5D5C5C5B5B5A5A595958C2
:100E7000585757565655555554545353525252512C
:100E8000515050504F4F4F4E4E4D4D4D4C4C4C4B82
:100E90004B4B4A4A4A4949494848484747474746C9
:100EA0004646454545444444444343434342424205
:100EB00042414141002B26D4770021D01CB54FEA96
:100EC000370703B44FF010004FF010014FF000004F
:100ED0000FBCBDE810400BF1010BBBF1010F08BFC7
:100EE0005FEA170722BF12F1010211F101014FF071
:100EF000004143F1000300F0004043EA0000704766
:100F0000F9D35708DAE746EA064613F1400F4FEAED
:100F100016461FDD13F1200FDFBF16430A460021DE
:100F200020335B42C8D0C3F1200746EA064602FAE6
:100F300007F74FEA164646EA0706C3F1200722FAEA
:100F400003F201FA07F721FA03F14FF0000342EA36
:100F50000702B1E746EA020646EA06464FEA1646A7
:100F600046EA0106BCBF46EA0646360C4FF00003CF
:100F70004FF000024FF000019EE72DE9C048934674
:100F800030B491E8380007C831EA400C48BF34EA71
:100F9000430C03D5FFF7F2FDFFF78CFFF0BCBDE873
:100FA00000882DE9C048934630B491E8380007C85E
:100FB00010F0804F08BF13F0804F03D100F005F808
:100FC000FFF778FFF0BCBDE8008820F07F4780EA9B
:100FD000030023F07F4C07EB0C03A3F57C5300F0D8
:100FE0000040A3F1FE0392F0000F00F0B38095F0F3
:100FF000000F00F077802DE901494FEA11404FEAD8
:10100000144621EA004800FB06FC24EA064708FBD8
:1010100006F607FB08F800FB07F718EB06484CEB51
:10102000164C4FEA124B18EB07484FEA15464CEBAB
:10103000174022EA0B4E0BFB06FC25EA06470EFB87
:1010400006F607FB0EFE0BFB07F71EEB064E4CEBFE
:10105000164C4FF000061EEB074E4CEB174B18EBEF
:101060000B0840F1000018EB0E0B58EB000840F1A4
:1010700000008F1A4FF000013CBFC943661B14BF2C
:10108000B5EB040C00213CBFC943F61B4FEA1744E3
:101090004EEA8E0E27EA04454FEA1C4704FB07621E
:1010A0002CEA074C05FB07F70CFB05F604FB0CFCD0
:1010B00016EB074642EB174216EB0C4642EB1C427E
:1010C0001BEB060658EB0202414146EA9E0601D59B
:1010D000BDE80189B619524141EB0101A3F10103B9
:1010E000BDE801894FEA14454FEA114724EA054655
:1010F00021EA074C05FB07F406FB07F70CFB06F19A
:1011000005FB0CFC11EB074144EB17444FEA124777
:1011100011EB0C4144EB1C4422EA074C05FB07F29F
:1011200006FB07F70CFB06F605FB0CFC16EB074667
:1011300042EB174216EB0C4642EB1C456A1854F181
:10114000000148BF7047B619524141EB0101A3F1BC
:101150000103704795F0000F37D04FEA11424FEA74
:10116000144721EA024624EA074C02FB07F106FB7A
:1011700007F70CFB06F402FB0CFC14EB074441EBF5
:1011800017414FEA154714EB0C4441EB1C4125EA8B
:10119000074C02FB07F506FB07F70CFB06F602FB04
:1011A0000CFC16EB074645EB174516EB0C4645EBDA
:1011B0001C42121951F1000148BF7047B619524143
:1011C00041EB0101A3F1010370474FEA14454FEAD7
:1011D000114724EA054621EA074C05FB07F106FB07
:1011E00007F70CFB06F24FF0000605FB0CFC12EBB8
:1011F000074241EB174112EB0C4251EB1C4148BF37
:101200007047921841EB0101A3F101037047000000
:1012100000B587B00121084601F0F2F801214FF432
:10122000017001F01DF97020ADF8040000208DF868
:10123000070001A9284800F0E6FE4FF4004001F045
:10124000D3F8264800F062F80020029001208DF8C3
:101250000C008DF80D004FF46020049000200590E4
:1012600003208DF8180002A91C4800F091F8012015
:1012700000F028F9072301220421184800F0B0F8F3
:10128000072302220521154800F0AAF807230322AC
:101290000621124800F0A4F80121104800F020F8BF
:1012A00001210E4800F027F80C4800F0F5F800BFC7
:1012B0000A4800F063F80028FAD1084800F0FCF86A
:1012C00000BF064800F050F80028FAD10121034879
:1012D00000F0E7F807B000BD00080140002401401D
:1012E00021B1826842F00102826003E0826822F04C
:1012F00001028260704721B1826842F4807282608C
:1013000003E0826822F480728260704710B5044660
:101310001248844208D10121401501F0B1F80021A2
:10132000601501F0ADF817E00D48844208D10121A5
:10133000001501F0A5F80021201501F0A1F80BE03F
:101340000848844208D10121C80301F099F800211E
:101350004FF4004001F094F810BD0000002401405B
:1013600000280140003C0140014600208A6802F04C
:1013700004020AB1012000E000207047014600206D
:101380008A6802F008020AB1012000E000207047DC
:1013900030B502460020002350680F4C20400D79E4
:1013A0000C6844EA05242043506090680B4C2040B0
:1013B000D1E902542C434D7944EA4504204390601E
:1013C000D06A20F470000C7C641EE4B2234340EA2F
:1013D0000350D06230BD0000FFFEF0FFFDF7F1FFCB
:1013E000F0B504460D4600200021092D11DDE0680E
:1013F000A5F10A0606EB4607072606FA07F1884319
:10140000A5F10A0606EB460603FA06F10843E0607A
:101410000CE0206905EB4507072606FA07F188432B
:1014200005EB450603FA06F108432061072A0FDAA7
:10143000606B561E06EB86071F2606FA07F18843E7
:10144000561E06EB860605FA06F10843606322E0A5
:101450000D2A0FDA206BD61F06EB86071F2606FA29
:1014600007F18843D61F06EB860605FA06F1084306
:10147000206310E0E06AA2F10D0606EB86071F2646
:1014800006FA07F18843A2F10D0606EB860605FA77
:1014900006F10843E062F0BD816841F00801816017
:1014A000704721B1826842F4A002826003E0826842
:1014B00022F4A00282607047816841F004018160DB
:1014C0007047000030B10749096841F40001054A3E
:1014D000116005E00349096821F40001014A116027
:1014E000704700000824014000BFFEE710B5044625
:1014F0000B48844209D10121480600F0A1FF0021D8
:101500004FF0007000F09CFF08E00121880600F019
:1015100097FF00214FF0806000F092FF10BD0000A7
:101520000064004010B50021837A012202FA03F121
:101530003D4A126842F001023B4B1A603A4A1C32A3
:1015400012688A43384B1C331A60027BCAB9364A88
:101550000C3212688A43344B0C331A604288C388B9
:1015600042EA0343304A4032847A42F834300288F7
:10157000838842EA03432C4A4032847A02EBC40255
:101580005360027B012A19D1274A0C3212680A43A0
:10159000254B0C331A604288038842EA0343224AEF
:1015A0004032847A42F83430C288838842EA034366
:1015B0001D4A4032847A02EBC4025360C27A3AB9BF
:1015C000194A121D12688A43174B1B1D1A6006E048
:1015D000154A121D12680A43134B1B1D1A6002891B
:1015E00032B9114A143212688A430F4B14331A600D
:1015F0000289012A06D10C4A143212680A430A4BA6
:1016000014331A60427B012A06D1074A1C32126841
:101610000A43054B1C331A60034A126822F0010288
:10162000014B1A6010BD0000006600401AB143690A
:101630000B43436102E043698B434361704730B51C
:10164000024600200023146824F002041460146889
:1016500044F00104146000E05B1C546804F00104D1
:101660001CB94FF6FF74A342F6D1546804F001048C
:101670000CB900206CE08C79012C04D1146844F082
:101680008004146003E0146824F080041460CC79B2
:10169000012C04D1146844F04004146003E0146881
:1016A00024F0400414600C7A012C04D1146844F036
:1016B0002004146003E0146824F0200414604C7AC1
:1016C000012C04D1146844F01004146003E0146881
:1016D00024F0100414608C7A012C04D1146844F0B6
:1016E0000804146003E0146824F008041460CC7A41
:1016F000012C04D1146844F00404146003E014685D
:1017000024F0040414608C78A407CD7844EA0564BE
:101710000D7944EA05444D7944EA05540D886D1E5F
:101720002C43D461146824F001041460002300E009
:101730005B1C546804F001041CB14FF6FF74A34213
:10174000F6D1546804F001040CB1002000E001203F
:1017500030BD00002DE9F0418AB004460D46164622
:101760001F46DDF840800121480600F059FE4FF485
:101770000070ADF8240003208DF8260018208DF8A5
:10178000270009A9344800F03EFC4FF48070ADF802
:10179000240048208DF8270003208DF8260009A991
:1017A0002D4800F030FC01214FF4EA1000F0B6FCA7
:1017B0002A48FFF79BFE06A800F0CAF800208DF823
:1017C0001E008DF81F008DF8200001208DF82100EB
:1017D00000208DF822008DF823008DF81A808DF8F6
:1017E0001B408DF81C608DF81D50ADF8187006A9CF
:1017F0001A48FFF724FF00208DF812008DF813001F
:1018000001208DF814000020ADF80800ADF80A00A2
:10181000ADF80C00ADF80E00ADF8100001208DF809
:10182000150002A8FFF77EFE012202210B48FFF7F8
:10183000FDFE14208DF8040001208DF80500002025
:101840008DF8060001208DF8070001A800F088FD42
:1018500000200AB0BDE8F081000C014000640040A7
:1018600010B500F5D87303EB01131B6803F00403F4
:101870001372137A53B900F5D87303EB01131B6885
:1018800040F2FF7404EA5353136009E000F5D87383
:1018900003EB01131B686FF0604404EAD303536049
:1018A00000F5D87303EB01131B6803F002035372B6
:1018B00000F5D87303EB01135B6803F00F03937219
:1018C00000F5D87303EB01135B681B0AD37400F5B2
:1018D000D87303EB01139B68D37200F5D87303EB45
:1018E00001139B681C0A147300F5D87303EB0113F2
:1018F0009B681C0C547300F5D87303EB01139B68B1
:101900001B0E937300F5D87303EB0113DB68D373DD
:1019100000F5D87303EB0113DB681C0A147400F59F
:10192000D87303EB0113DB681C0C547400F5D873F7
:1019300003EB0113DB681B0E937421B9C36843F0FA
:101940002003C36003E0036943F02003036110BD7B
:1019500000218171C171017241728172C172817005
:10196000C170032101710221417101210180704781
:1019700010B502460020936803F08063B3F1806FD6
:1019800000D110E0936803F00063B3F1006F01D160
:10199000012008E0936803F08053B3F1805F01D128
:1019A000022000E00420042874D002F5C07303EB89
:1019B00000131B6803F0010402F5C07303EB00136E
:1019C0001C600B7A7BB94B7A0C8843EA445302F5CE
:1019D000C07404EB00142468234302F5C07404EBC4
:1019E0000014236010E00B7A4C6843EAC4034C7A7D
:1019F000234302F5C07404EB00142468234302F56A
:101A0000C07404EB001423608B7A03F00F038B7215
:101A100002F5C07303EB00135B6823F00F0402F5BB
:101A2000C07303EB00135C6002F5C07303EB00139B
:101A30005B688C7A234302F5C07404EB0014636086
:101A40008B7B1C064B7B44EA03440B7B44EA032359
:101A5000CC7A234302F5C07404EB0014A3608B7CA2
:101A60001C064B7C44EA03440B7C44EA0323CC7BF6
:101A7000234302F5C07404EB0014E36002F5C07365
:101A800003EB00131B6843F0010402F5C07303EB82
:101A900000131C6010BD000010B50246002321B1E8
:101AA000012907D002290FD109E090681D4C00EAF6
:101AB00004030BE090681C4C00EA040306E0906805
:101AC0001A4C00EA040301E0002300BF00BF184CD9
:101AD000181BA34216D007DC83B16FF08060184456
:101AE00070B1022818D111E0B0F5007F10D0114C70
:101AF000204448B1B0F5003F0ED10BE002230DE0C9
:101B000000230BE0002309E0002307E0012305E0A8
:101B1000012303E0012301E0002300BF00BFD8B28E
:101B200010BD0000030000040003000800000310C3
:101B3000000100080001FFF7F0B585B007460D462B
:101B40000024022000901220019000208DF808004F
:101B50008DF809008DF80A5000BF05E0395D0DF1E0
:101B60000B000155601C84B2AC42F7DB69460D489E
:101B7000FFF7FEFE0646002401E0601C84B23146F9
:101B80000848FFF789FF18B940F6FF708442F4DB7C
:101B900040F6FF70844202DB012005B0F0BD00205A
:101BA000FBE700000064004010B5022000F020F9BF
:101BB00020B100F0C3FF022000F056F810BD000075
:101BC00010B54FF4005000F013F938B14FF4005045
:101BD00000F04AF80021024800F054F810BD00005F
:101BE0004400024010B54FF0007000F001F938B128
:101BF0004FF0007000F038F80021024800F042F881
:101C000010BD00008000024000B58BB0134800F00A
:101C100045F81348009013480190002002905A2084
:101C200003900020049080200590400006908000E2
:101C30000790202008900002099000200A90694631
:101C4000064800F0F4F80121044800F01BF80122D6
:101C50000221024800F0E2F80BB000BD080002408B
:101C60004C2401406402002000F0805111B103496E
:101C7000086001E002494860704700000404024027
:101C80000000024021B1026842F00102026004E05B
:101C900002684FF6FE731A400260704701684FF603
:101CA000FE72114001600021016041608160C160ED
:101CB0004B49884208D14A490839496841F00F0127
:101CC000474A083A51608AE045491431884208D1B0
:101CD00043490839496841F0F001414A083A5160E6
:101CE0007DE03F492831884208D13D49083949689B
:101CF00041F470613A4A083A516070E038493C3129
:101D0000884208D136490839496841F47041344A5B
:101D1000083A516063E032495031884208D1304975
:101D20000839496841F470212D4A083A516056E05B
:101D30002B496431884208D129490839496841F45E
:101D40007001274A083A516049E0254978318842B4
:101D500008D123490839496841F07061204A083A9E
:101D600051603CE01F49884206D1011F096841F0DB
:101D70000F01021F116032E01A491431884208D164
:101D80001849091F096841F0F001164A121F116035
:101D900025E014492831884208D11249091F0968F1
:101DA00041F470610F4A121F116018E00D493C3177
:101DB000884208D10B49091F096841F47041094A5A
:101DC000121F11600BE007495031884207D10549C5
:101DD000091F096841F47021024A121F11607047FF
:101DE00008000240080402400146486880B270477B
:101DF00001460020002201F0805313B1054B1A6800
:101E000001E0054B1A6802EA01030BB1012000E072
:101E10000020704700040240000002401AB103682D
:101E20000B43036002E003688B430360704710B507
:101E30000022026847F6F0739A430C6A8B682343CA
:101E40000C6923434C6923438C692343CC692343A6
:101E50004C6A23438C6A23431A430260CB68436075
:101E60000B6883604B68C36010BD41607047000021
:101E700000B58DB02D48FFF711FF2D4801902D487A
:101E80000290002003908020049000200590802084
:101E90000690002007900890202009904FF44050B1
:101EA0000A9000200B9001A92048FFF7C0FF0121F4
:101EB0001E48FFF7E7FE1D481438FFF7EFFE1C48E9
:101EC00001901D4802901020039080200490002073
:101ED000059080200690002007900890202009900F
:101EE00000020A9000200B9001A910481438FFF757
:101EF0009EFF012202210D481438FFF78FFF0021B9
:101F00000A481438FFF7BEFE0E208DF8300003207B
:101F10008DF8310002208DF8320001208DF8330059
:101F20000CA800F01DFA0DB000BD000058000240E2
:101F300004380140640000206401002000B58DB029
:101F40002C48FFF7ABFE2C4801902C480290002053
:101F500003908020049000200590802006900020AF
:101F600007900890202009904FF440500A900020DC
:101F70000B9001A91F48FFF75AFF01211D48FFF7E9
:101F800081FE1C481430FFF789FE1B4801901C4855
:101F90000290102003908020049000200590802063
:101FA00006900020079008902020099000020A90D7
:101FB00000200B9001A90F481430FFF738FF0122D1
:101FC00002210C481430FFF729FF00210948143082
:101FD000FFF758FE11208DF8300003208DF83100F6
:101FE00001208DF832008DF833000CA800F0B8F90C
:101FF0000DB000BD6C00024004440040E40000202D
:10200000E401002070472DE9F0410246002500263A
:10201000002000230024002791F803C00CF00F05D6
:1020200091F803C00CF0100CBCF1000F03D091F834
:1020300002C04CEA050591F800C0BCF1000F31D098
:10204000146800202BE04FF0010C0CFA00F3B1F8FB
:1020500000C00CEA03069E4220D183004FF00F0C13
:102060000CFA03F7BC4305FA03FC4CEA040491F8AC
:1020700003C0BCF1280F06D14FF0010C0CFA00FC94
:10208000C2F814C00AE091F803C0BCF1480F05D1B2
:102090004FF0010C0CFA00FCC2F810C0401C0828DC
:1020A000D1D31460B1F800C0BCF1FF0F34DD546827
:1020B00000202EE000F1080C4FF0010808FA0CF3A4
:1020C000B1F800C00CEA03069E4221D183004FF014
:1020D0000F0C0CFA03F7BC4305FA03FC4CEA0404AA
:1020E00091F803C0BCF1280F05D100F1080C08FAE3
:1020F0000CF8C2F8148091F803C0BCF1480F07D166
:1021000000F1080C4FF0010808FA0CF8C2F8108032
:10211000401C0828CED35460BDE8F081F0B50A46D3
:10212000002300240021002500F00046B6F1004FF6
:1021300002D11D4EF16901E01B4E7168C0F30345E9
:1021400083B200F44016B6F5401F08D121F070614B
:10215000154E766826F07066134F7E6012E000F42C
:102160008016B6F5801F06D1032606FA05F4A143B2
:1021700041F0706106E0460D360103FA06F6B14300
:1021800041F0706122B1460D360103FA06F6314383
:1021900000F00046B6F1004F02D1034EF16101E0BC
:1021A000014E7160F0BD00000000014000BFFEE77D
:1021B0004CF6CC40014908607047000000300040F8
:1021C00010B500F013F810BD70B505460C4645F289
:1021D000555000F01FF8284600F010F8204600F097
:1021E00013F800F003F8FFF7E3FF70BD4AF6AA20EA
:1021F0000149086070470000003000400149486014
:1022000070470000003000400149886070470000BE
:102210000030004001490860704700000030004075
:1022200008B50121092000F01BF901212B48FFF717
:1022300075FF0121102000F013F94FF60340ADF8AF
:10224000000014208DF8030003208DF80200694679
:102250002348FFF7D8FE0120224908602249C1F82F
:102260008401204928310860091D0860091D0860A3
:10227000091D0860091D086000201B49C1F8BC0148
:102280004FF41860ADF8000014208DF8030003200F
:102290008DF8020069461548FFF7B5FE0120144984
:1022A0000860F820ADF8000048208DF803000320F6
:1022B0008DF8020069460A48FFF7A5FE41F20200C8
:1022C000ADF8000048208DF8030003208DF80200CF
:1022D00069460648FFF797FE08BD0000000230007F
:1022E000000C014080812142008021420008014011
:1022F0009C01214200BFFEE7704708B54FF4A06083
:1023000000F066F825208DF8000003208DF801000C
:102310008DF8020001208DF80300684600F020F8D7
:1023200026208DF8000003208DF8010004208DF890
:10233000020001208DF80300684600F011F80B2020
:102340008DF8000001208DF8010000208DF80200BA
:1023500001208DF80300684600F002F808BD000077
:1023600070B5002100230F22C47804B3154C2468F3
:1023700004F4E064C4F5E064210AC1F10403CA4036
:10238000447804FA03F184781440214309010E4C87
:102390000678A155047804F01F050124AC400578A7
:1023A0006D11AD0005F1E025C5F8004109E00478A4
:1023B00004F01F050124AC40044D0678761145F861
:1023C000264070BD0CED00E000E400E080E100E09C
:1023D00002490143024A1160704700000000FA05FB
:1023E0000CED00E07047000001460020034A5068F1
:1023F00020F4404008435060704700000010024045
:1024000029B1064A52690243044B5A6104E0034A67
:1024100052698243014B5A6170470000001002402C
:1024200029B1064AD2690243044BDA6104E0034A47
:10243000D2698243014BDA6170470000001002400C
:1024400029B1064A12690243044B1A6104E0034AA7
:1024500012698243014B1A6170470000001002406C
:1024600029B1064A92690243044B9A6104E0034A87
:1024700092698243014B9A6170470000001002404C
:1024800029B1064AD2680243044BDA6004E0034AE9
:10249000D2688243014BDA607047000000100240AE
:1024A00030B500210022002400232D4D6D6805F079
:1024B0000C0121B1042905D0082923D105E0294DBB
:1024C000056022E0274D05601FE0254D6D6805F48D
:1024D0007012234D6D6805F48034022505EB92429D
:1024E0001CB9214D554305600BE01D4D6D6805F489
:1024F00000351DB11C4D5543056002E0194D554393
:10250000056002E0174D056000BF00BF144D6D6807
:1025100005F0F0010909154D6B5C0568DD4045606B
:102520000F4D6D6805F4E061090A104D6B5C45685C
:10253000DD4085600A4D6D6805F46051C90A0B4D98
:102540006B5C4568DD40C560054D6D6805F4404134
:10255000890B074D6B5CC568B5FBF3F5056130BDB4
:102560000010024000127A0000093D002200002005
:1025700032000020704710B500F002F810BD0000D6
:102580000CB50020019000903348006840F4803082
:102590003149086000BF3048006800F40030009006
:1025A0000198401C0190009818B90198B0F5A06FEF
:1025B000F1D12948006800F4003010B101200090EA
:1025C00001E0002000900098012843D123480068D2
:1025D00040F01000214908600846006820F0030020
:1025E00008600846006840F0020008601A48406829
:1025F000194948600846406848600846406840F409
:10260000806048600846406820F47C1048600846B6
:10261000406840F4E81048600846006840F0807068
:10262000086000BF0C48006800F000700028F9D076
:102630000948406820F003000749486008464068A0
:1026400040F00200486000BF0348406800F00C0002
:102650000828F9D10CBD0000001002400020024003
:10266000042808D14FF0E021096941F004014FF03E
:10267000E022116107E04FF0E021096921F0040137
:102680004FF0E0221161704710B51348006840F028
:1026900001001149086008464068104908400E4989
:1026A0004860084600680E4908400B490860084623
:1026B000006820F4802008600846406820F4FE008E
:1026C00048604FF41F008860FFF755FF4FF000602F
:1026D0000449086010BD0000001002400000FFF82F
:1026E000FFFFF6FE08ED00E010B540F224412B4854
:1026F00000F09FF8002850D000212948FFF7C2FAC7
:1027000026480088274908802448001D0088088042
:102710002348FFF769FBC0F1800022490880802030
:102720001F495839C86501201F4988701F48007823
:1027300001280DD11D484078012809D11B48807817
:10274000022805D10020087001201949086020E006
:102750001648007801280ED11448407802280AD182
:1027600012488078032806D101200F490870002004
:102770000F4908600DE00D480078012809D10B4889
:10278000407830B909488078012802D1032000F050
:1027900045F901210248FFF775FA10BD00380140E4
:1027A000580002405E000020180000206400002055
:1027B000BC81214210B540F22441104800F039F8A4
:1027C000D0B100210E48FFF75DFA0C4800880D4992
:1027D00008800A48001D008808800948FFF704FBAC
:1027E000C0F1800007490880802005496C390867DE
:1027F00001210348FFF746FA10BD000000440040E5
:102800006C0002406000002021B1828942F4005235
:10281000828104E082894DF6FF731A4082817047FD
:102820001AB1838A0B43838202E0838A8B438382BB
:10283000704770B50246002400230025002040F6B2
:102840006A16B14200D100BFC1F3421501F01F0367
:10285000012606FA03F3012D02D19689334006E0E2
:10286000022D02D1168A334001E0968A33400C12C1
:10287000012606FA04F41688344013B10CB1012085
:1028800000E0002070BDF0B50346002400260025BE
:10289000002040F66A17B94200D100BF1846C1F3C4
:1028A000421401F01F06012707FA06F5012C01D199
:1028B0000C3004E0022C01D1103000E014301AB1C9
:1028C00007682F43076002E00768AF430760F0BD69
:1028D0002DE9F04786B005460E460024A24600BF0B
:1028E000A1460027B08900B100BF2F462C8A4CF6C4
:1028F000FF700440F08804432C82AC894EF6F3103C
:102900000440B08831890843718908430443AC818D
:10291000AC8A4FF6FF400440B0890443AC8201A862
:10292000FFF7BEFD1F48874202D1DDF810A001E08D
:10293000DDF80CA0A88900F4004040B10AEBCA0001
:1029400000EB0A1031684900B0FBF1F807E00AEB30
:10295000CA0000EB0A1031688900B0FBF1F864206E
:10296000B8FBF0F004012009642101FB1089A8895B
:1029700000F4004040B1322000EBC900B0FBF1F0A0
:1029800000F00700044308E0322000EB0910642146
:10299000B0FBF1F000F00F0004432C8106B0BDE85D
:1029A000F08700000038014010B5174A0021174891
:1029B000FEF756FF1448006810280ED11248807B9D
:1029C000552803D103211248FFF7B6F80E48807B43
:1029D000662802D101200F4948700B480068012881
:1029E00011D10948407B00F0800030B10120094935
:1029F000087000200849086005E0002005490870BB
:102A000001200549086010BD240300200064004037
:102A10001E00002018000020BC81214210B5044691
:102A200021460448FFF721FA01210248FFF72AF95D
:102A300010BD00004400024000BFFEE7490050EA1C
:102A4000C12018BF04204A0D18BF40F0010040F219
:102A5000FF72B2EB515F08BF40F00200012808BFCF
:102A60000520704730380A2801D201207047002025
:102A70007047014600BF704710B50948C07801286B
:102A80000DD1084800780849087006484078487019
:102A900004488078887004210348FFF74DF810BD82
:102AA00018000020640100201E00002010B56FF007
:102AB0000400FFF7D5FD0A4800680A49B0FBF1F0B1
:102AC000094908700846007800EB4001C1EBC010CE
:102AD0004FF6FF7101EAC0000449088010BD0000F4
:102AE0000400002000127A00360000203800002088
:102AF0000146114A12884A434FF0E0235A610022EE
:102B00009A611A46126942F001021A6100BF4FF041
:102B1000E022106900F001021AB100F48032002AAC
:102B2000F5D04FF0E022126922F001024FF0E023CD
:102B30001A6100229A617047380000202DE9F041A7
:102B40000026002419E0002509E005EB45000D49A9
:102B500001EB400030F814000644681CC5B21E2D7D
:102B6000F3DB1E2096FBF0F7384601F04BFB0649DD
:102B700041F824000026601CC4B2032CE3DBBDE84E
:102B8000F0810000640200201803002008B5002432
:102B90000025FFF78BFFFFF7B0FB4FF4165000F056
:102BA0009DF84FF4E13000F0F5F8FFF761F9FFF719
:102BB000C5F9FFF729F8FEF72BFBFFF731FB40F2D1
:102BC00071210420FFF700FB0020042308220721C5
:102BD0000090FEF7BFFD04213948FEF7ADFF00204D
:102BE0003749C8706BE037480078B0B900F032F967
:102BF00034484078012802D1FFF73EFF01E000F0A1
:102C00001DF9681CC5B2052D1FD100252E4800688E
:102C1000C0432E49C1F8AC0117E000202A49103109
:102C2000086001202949C1F8B80127490831086026
:102C3000091F0860091F0860091F08602249283918
:102C40000860091F086022490860601CC4B2052C96
:102C50002ED1FFF7B5FA1E4810300068C0431D4959
:102C6000C1F8AC01002417484078E8B915488078CD
:102C7000D0B90120134908700020134910310860B1
:102C800001201249C1F8B8010F4908310860091F35
:102C90000860091F0860091F08600B49283908608F
:102CA000091F08600A4908600020064948708870BA
:102CB00004210948FEF740FF6420FFF719FF92E75F
:102CC0001E00002018000020AC812142008021421B
:102CD0009C012142000021420000002010B586B076
:102CE000044601210846FFF78BFB012144F2040052
:102CF000FFF7B6FB4FF40070ADF8140003208DF819
:102D0000160018208DF8170005A92048FFF77BF959
:102D10004FF48060ADF8140004208DF8170005A969
:102D20001A48FFF770F901940020ADF80800ADF8DB
:102D30000A00ADF80C00ADF810000C20ADF80E0044
:102D400001A91348FFF7C4FD002240F22661104894
:102D5000FFF799FD002240F225510D48FFF793FD42
:102D6000012240F224410A48FFF78DFD0122402153
:102D70000748FFF755FD012280210548FFF750FD68
:102D800001210348FFF740FD06B010BD00080140D7
:102D90000038014010B586B0044601210846FFF70F
:102DA0002FFB01214804FFF73BFB0420ADF8140082
:102DB00003208DF8160018208DF8170005A91D486E
:102DC000FFF721F90820ADF8140004208DF8170052
:102DD00005A91848FFF717F901940020ADF808007D
:102DE000ADF80A00ADF80C00ADF810000C20ADF8FD
:102DF0000E0001A91048FFF76BFD002240F226618A
:102E00000D48FFF740FD002240F225510A48FFF728
:102E10003AFD012240F224410748FFF734FD012228
:102E200040210548FFF7FCFC01210348FFF7ECFCBB
:102E300006B010BD000801400044004010B5044831
:102E4000C078012802D10320FFF7E8FD10BD000083
:102E5000180000202DE9F04FCFB0FE4CDFF8F893BA
:102E6000FE49086801F01EF84FF06632FC4BCDE9D0
:102E7000020100F023FE07460022FA4B00F098FC06
:102E800005460022F84B00F019FE824600F0B6FB22
:102E9000F6490860F149486801F004F84FF06632DD
:102EA000EF4BCDE9020100F009FE07460022ED4B91
:102EB00000F07EFC82460022EB4B00F0FFFD054651
:102EC00000F09CFBEA490860E449886800F0EAFFEA
:102ED0004FF06632E24BCDE9020100F0EFFD05460E
:102EE0000022E04B00F064FC07460022DE4B00F0BD
:102EF000E5FD824600F082FBDE490860DE4800689E
:102F0000DE49D1F8141140EA4100DC49D1F81C1126
:102F100040EA8100DA49D1F8301140EAC100D749CE
:102F2000D1F8101140EA0110D449D1F8181140EA43
:102F30004110D449096840EA8110D3498870CD48CE
:102F4000006800F0AFFF05462A460B46CFA136A821
:102F5000FDF748F9C648006800F0A4FF05462A4678
:102F60000B46CCA11DA8FDF73DF9C048006800F054
:102F700099FF05462A460B46C8A104A8FDF732F979
:102F8000BE48D0F81001012808D10020BA49A83164
:102F900008600120B949C1F8800107E00120B64965
:102FA000A83108600020B549C1F88001B248006826
:102FB000012879D1B049783108600020AF49C1F8C3
:102FC000B801B8480168AB48006801F0C7F813D1F0
:102FD000B5480168A648006801F0C0F80CD1B348B4
:102FE0000168A248006801F0B9F805D1A6488078C8
:102FF000AF49098888427CD09E480068A94908608A
:103000009B480068A849086098480068A74908607C
:103010009D488078A64908800120A649C870964836
:1030200008300068002865D101209349A431086068
:1030300000209349C1F89C0149469A48006801F074
:10304000F9F836D221469848006801F0F3F930D2F9
:1030500005208D490870204600F024FF0022964B81
:10306000CDE9000100F028FECDE9020121468E489D
:10307000006801F011FA019000F014FF0746DDE945
:10308000022300F095FB05460022774B00F016FD69
:10309000824600F0E5FC7C49487008464078642888
:1030A00003DC0846407801E066E264207649487017
:1030B0006EE282497B48006801F0BCF939D22146B2
:1030C0007948006801F0B6F933D206206E490870DD
:1030D000204600F0E7FE82460022794B00F0ECFD2E
:1030E0000746884621467048006801F0D5F98246B7
:1030F00001E03DE2B6E100F0D5FE3A464346CDE9B7
:10310000000100F055FB05460022574B00F0D6FCAD
:10311000CDE9020100F0A4FC5B4948700846407804
:10312000642802DC0846407800E064205649487074
:103130002EE249465B48006801F07CF836D24946E9
:103140005948006801F076F830D207204E490870DF
:10315000484600F0A7FE00225A4BCDE9000100F0DE
:10316000B7FD82468B4650480168484601F094F905
:10317000019000F097FE074652465B4600F018FBB0
:1031800005460022384B00F099FCCDE9020100F021
:1031900067FC3D49487008464078642802DC0846D0
:1031A000407800E0642038494870F1E121463D480C
:1031B000006801F03FF935D249463B48006801F00C
:1031C00039F82FD2082030490870484600F06AFECE
:1031D000074600223B4B00F07BFDCDE9020132485F
:1031E0000168484601F058F9074600F05BFECDE95A
:1031F0000001DDE9022300F0DBFA054600221A4B4C
:1032000000F05CFC824600F02BFC1F494870084629
:103210004078642802DC0846407800E064201A49BF
:103220004870B5E149461F48006801F003F86FD2C5
:10323000032015490870484600F034FE0546002278
:10324000214B00F045FD0746884616480168484670
:103250003CE00000000011430000D24218030020AF
:1032600066660A400000B040000059404C00002053
:1032700048000020440000200C81214200802142AF
:10328000000021420401214264010020783A2533E4
:103290002E660000793A25332E6600007A3A2533EF
:1032A0002E6600005000002054000020580000202E
:1032B0005C0000201800002000A0684000000243CD
:1032C0000080674000804B4000003B4001F0E4F884
:1032D000054600F0E7FD3A464346CDE9000100F01F
:1032E00067FA0022AC4BCDE9020100F0E7FB824611
:1032F00000F0B6FBA949487008464078642802DC13
:103300000846407800E06420A449487040E1FFE7A7
:103310002146A348006801F08DF824D204209F497B
:10332000087021469F4801F0B7F8074621469C489F
:10333000006801F0B1F88046394600F04DFE0646BF
:10334000994900F0ABFF054600F03CFF93494870F7
:1033500008464078642802DC0846407800E0642093
:103360008E49487014E149469048006800F062FFB9
:1033700024D20920894908708D49484601F08CF80B
:1033800007468A480168484601F086F88046394673
:1033900000F022FE0646844900F080FF054600F05A
:1033A00011FF7E49487008464078642802DC0846D0
:1033B000407800E0642079494870E9E021467B4884
:1033C000006801F037F824D20A20744908702146B9
:1033D000784801F061F8074621467448006801F01A
:1033E0005BF88046394600F0F7FD06466E4900F06E
:1033F00055FF054600F0E6FE6849487008464078EB
:10340000642802DC0846407800E064206349487084
:10341000BEE049466248006801F00CF805D221463A
:103420005F48006800F006FF17D34946624800680D
:1034300001F000F805D221465F48006800F0FAFE6E
:103440000BD349465948006800F0F4FF8AD2214660
:103450005648006800F0EEFE84D200204F49087004
:10346000487095E000205549086001205449C1F892
:103470009C0121465048006800F0DCFF24D2012066
:103480004649087021464F4801F006F80746214694
:103490004948006801F000F88046394600F09CFD7C
:1034A0000646414900F0FAFE054600F08BFE3B4916
:1034B000487008464078642802DC0846407800E0FE
:1034C00064203649487063E049463B48006800F094
:1034D000B1FE24D20220314908703549484600F037
:1034E000DBFF074634480168484600F0D5FF8046B8
:1034F000394600F071FD06462B4900F0CFFE054627
:1035000000F060FE2549487008464078642802DCD7
:103510000846407800E064202049487038E0494679
:103520001F48006800F086FF05D221461C4800684D
:1035300000F080FE17D349461F48006800F07AFF6C
:1035400005D221461C48006800F074FE0BD34946A2
:103550001648006800F06EFF1AD221461348006832
:1035600000F068FE14D200200C49087048700FE08B
:1035700000201549C8700BE0002010492C39086064
:1035800001201249C1F8B8010020044908704870B0
:103590004FB0BDE8F08F00000000594064010020EA
:1035A0005000002000005F430000C8425800002087
:1035B0000000C8410000614354000020B081214256
:1035C00000002142000045431800002000802142F5
:1035D00010B500290AD00878002807D0054878449B
:1035E000FDF71AFA002801D0002010BD02487844E7
:1035F00010BD00005E1000005610000021F00042D7
:10360000A2F16052B2F5801F01F0004328BFD2F151
:103610007F6C0BD95FEA001C43EAC20242EB507098
:1036200018BF704728BF20F001007047B2F5801F17
:10363000BCBF184670474FEA410C1CF5001F02D270
:10364000084600F0F2BE70B500F0E2FA0000008912
:10365000FFF7F6BF4FF00040A0F580007047000074
:1036600010B591EA030F48BF83F0004300F138839F
:10367000841A71EB030C05D2121943EB0C03001BE7
:1036800061EB0C01DFF824E14FEA1154A4EB135C69
:103690001EEA430F18BF9EEA445F73D023EA0E036D
:1036A000DCF1200E21EA045143F4801332D322FAD4
:1036B0000CFE10EB0E0023FA0CFE41EB0E01CCF1D8
:1036C000200E03FA0EFE10EB0E0051F10001B1F5D1
:1036D000801FCCF1200E32D201EB045112FA0EF20F
:1036E000BDE8104058BF7047401C38BF5FEA420237
:1036F00018BF7047002814BF20F0010041F10001FD
:103700004FEA410313F5001F38BF7047A1F1C041D4
:1037100000F0CCBA012A43EB0302ACF1200CDCF13F
:103720001F0E32BF4FF0000E23FA0CF310EB030014
:1037300041EB0451B4EB115FD0D0A1EB045101F582
:10374000801149085FEA300001EB04510ED350F1BB
:10375000000038BF12FA0EFE08D1BDE81040C9E7DC
:10376000401C38BF5FEA4202CAD1C3E7BDE810403F
:103770004FEA410313F5001F38BF7047A1F1C04164
:1037800000F094BA9EEA445F08D011EA5E0FBDE8EB
:10379000104004BF01F0004100207047BDE8104018
:1037A00070B500F035FA00BF64FBBE3E0000E0FFDC
:1037B0002DE9C04130B4DFF8A0C23CEA111418BFB3
:1037C0003CEA131400F0EC8081EA03051CEA1114B2
:1037D00044EAD57418BF1CEA131500F0C780A4EBA7
:1037E00005044FF0004545EAC12145EAC32341EAFB
:1037F000505143EA525304F17F74994204F5003466
:103800004FEAC0204FEAC22208BF904200F09C80DD
:103810004FEA13650FF24016765D4FEA134506FB3B
:1038200005F7C7F1807706FB07F74FEAD737A7FB05
:1038300003687642C8F58038A7FB06CE38BFA8F1EA
:10384000010807FB08E64FF0000EA6FB028CE6FB22
:1038500003CEDCF1000CCEF1004E38BFAEF1010E0C
:10386000A6FB0C584FF000074FF00005E6FB0E8753
:10387000A1FB08C6A0FB07CE16EB0E0645F100051E
:10388000E1FB076515F1E04E7EBFA4F580345FEAE9
:1038900046066D4116F1800745F100054FEA1727EE
:1038A0004FEA066647EA0567A6F1DE46B6F1805F95
:1038B0004FEA15251FD9384624F0010C05EBC471D9
:1038C000BCF1FE6F01EB0C1102D8F0BCBDE8008129
:1038D00024425CBF01F5801E9EEAC47F02D4F0BC86
:1038E000BDE80081244238D4F0BCA1F1C041BDE85C
:1038F000004100F0DBB94FEAD22242EA43524FEADC
:10390000D323A7FB02864FEAD02040EA415007FBB1
:1039100003661EEA0E0F4FEAD12105FB026658BF6F
:10392000A6EB0056B6EB00564FEA520E4EEAC37EA7
:1039300018EB0E0E56EB530EBDD518EB02085E4188
:103940007F1C55F10005B6E74FF480154FF00007D6
:103950004FF000064FF00008ADE7F0BC4FF000005C
:1039600001F1C04101F00041BDE8008111EA0C1FE6
:103970000CEA131500D00CE013EA0C1F00F02580B0
:103980004FF00000F0BC81EA030101F00041BDE806
:103990000081F0BCBDE8004181EA030100F086B976
:1039A000F0BCBDE8004170B500F032F9097EFC3E84
:1039B00000F007B881EA03014FF0000001F0004178
:1039C000704781EA030100F071B9F0BCBDE8004125
:1039D0004FF0000021497047FFFDFBF9F7F5F4F2C5
:1039E000F0EEEDEBE9E8E6E4E3E1E0DEDDDBDAD89A
:1039F000D7D5D4D3D1D0CFCDCCCBCAC8C7C6C5C4F8
:103A0000C2C1C0BFBEBDBCBBBAB9B8B7B6B5B4B30E
:103A1000B2B1B0AFAEADACABAAA9A8A8A7A6A5A4F9
:103A2000A3A3A2A1A09F9F9E9D9C9C9B9A999998BD
:103A30009797969595949393929191908F8F8E8E60
:103A40008D8C8C8B8B8A89898888878786858584ED
:103A500084838382828181800000FF070000F87FD9
:103A60004FEA1153A3F58063D3F11E03A8BFD3F12E
:103A7000200C08DB4FF0004242EAC12252EA5052C9
:103A800032FA03F0704709420BD4102BC4BF002058
:103A9000704703F5787CBCF1FF3F05D04FF0FF3055
:103AA00070474FF00000704770B500F0B1F800BFEC
:103AB0004992248000207047F0E70000DFF848C1F9
:103AC00070B51CEA111E1EBF1CEA13159EEA0C0FEE
:103AD00095EA0C0F00F06F8081EA030423EA4C138F
:103AE0004EEAD47E21EA4C1141F4801143F4801354
:103AF000AE44A1FB024CA0FB0365AEF17F7E3619FC
:103B000055EB0C05A1FB034C4CF10003A0FB021C80
:103B100016EB0C06654153F10003094218BF46F04D
:103B2000010613F4007F0BD14FEA03314FEA053051
:103B3000340341EA155140EA16506FF003020AE0DF
:103B40004FEAC3214FEAC520F40241EA555140EA49
:103B500056506FF0020202EB2E4201EB025585EA4D
:103B6000CE710AD05FEA440C18BF24F0004450F133
:103B7000000041F1000120EAD47040F2FE7C624571
:103B800000D270BDA84214BF4FF080444FF04044B3
:103B9000002E08BF0024BEF1806FA8BFA1F1C04174
:103BA000BDE8704080F282804FF0000001F1C0411A
:103BB00001F0004170479EEA0C0F0CEA131518BF84
:103BC00095EA0C0F06D04FF0000081EA030E0EF0CC
:103BD000004170BD00F01CF88900013E00F007B8FC
:103BE00000F009B84FEA430C5FEA5C5C08D081EA58
:103BF000030100F05BB84FEA410C5FEA5C5CF6D170
:103C00004FF00000014970470000FF070000F87FF7
:103C10000EF1020E2EF0030E5EF8046B364205D450
:103C2000012A43EB030515F5001F12D8012841EBCB
:103C3000010C1CF5001F0CD80ED14FEAD17C15F5F4
:103C4000001F0CEB4C0C0CF1020C08BF4CEBD37CAE
:103C500004E04FF0080C01E04FEAD37C0CEB4C057C
:103C600026FA05F606F00706B6F1040C06D20EEBAE
:103C7000860CBDE870404CF0010C6047DFE80CF0AA
:103C8000090B02024FF000414FF00000A1F50021A6
:103C900070BD19461046012851EB010418BFD4F538
:103CA000001484BF002001F0004170BD0808A0F599
:103CB00000114FEA3101704791EA030F10B581F00E
:103CC00000413FF5D5AC83F0004300F009B8000097
:103CD00010B591EA030F48BF83F000433FF5C8AC2D
:103CE000841A71EB030C07D212198CF0004C43EBD1
:103CF0000C03001B61EB0C01DFF8A4E14FEA115447
:103D0000A4EB135C1EEA430F18BF9EEA445F00F069
:103D1000B08023EA6E03524221EA0451C3EB6E03E2
:103D200038BF5B1EDCF1200E25D322FA0CFE10EB0F
:103D30000E0043FA0CFE41EB0E01CCF1200E03FA0B
:103D40000EFE10EB0E0051F10001CCF1200E29D433
:103D500012FA0EF201EB0451BDE8104058BF704753
:103D6000401C1CBFB2F1004F704700280CBF491C1B
:103D700020F00100704712EB020E43EB030218BF64
:103D80004FF0010E4EEA4202ACF1200CDCF11E0EA7
:103D900054D943FA0CFE10EB0E0051F1FF31CCF177
:103DA0001E0ED5D50EF1010E12FA0EFE404141EB6A
:103DB000010101EB445C5FEA5C5C10D910EBDE7042
:103DC00001EB045138BFBEF1004FBDE8104018BFF1
:103DD000704700280CBF491C20F00100704730D20A
:103DE0004FEAD42C11F5001124F400641BD0B1FA71
:103DF00081F20B3AA41AA41ED2F12003914030FAAA
:103E000003F31943904001EBCC71002C01EB0451FA
:103E1000BDE81040A8BF704701F1C0414FF000005D
:103E200001F000417047B0FA80F310FA03F100D1BD
:103E300010BDE41A173C4805C90AE4E701EB045138
:103E400010BD491001EB0451BDE810404FEA3000AD
:103E500002E04FF0000170474A0008BF0042F8D06E
:103E6000B2F5001F28BF704701F000414FF000007D
:103E700070479EEA445F07D011EA5E0FBDE810402C
:103E800004BF002100207047BDE8104070B5FFF767
:103E9000BFFE00BF40DFF63E83F000411046704792
:103EA0000000E0FF43004FEAD30C4FEA3C0C4340D4
:103EB0001FBF40070CF1605113F0FE4F70471CF01C
:103EC000006F03D100200CF0004170470CF000435C
:103ED00043EA507010B540EACC0000F060FA00BF31
:103EE000000000924FEA0001FFF7E0BE4FF00041F2
:103EF0004FF00000A1F500217047000090EA010F8B
:103F000048BF81F0004100F1CE82421A3CBF801AC6
:103F100089184FEAD0524FF07F4C1CEA410FA2EBB8
:103F2000D15318BF9CEA026F00F03B804FF0004C69
:103F30004CEA00204CEA012121FA03FC10EB0C0CA6
:103F40001ED202F1FF325FEA1C2040EBC25038BFA4
:103F500070471CF07F0F4FEA400C18BFBCF17F4F39
:103F600038BF7047C3F12003994008BF20F001001B
:103F7000BCF17F4F38BF7047A0F1C04000F055BA88
:103F80004FEA3C00000A40EBC25028BF1CF0FF0F74
:103F90004FEA400CE6D018BFBCF17F4F38BF7047E6
:103FA000EAE79CEA026F05D010EA5C0F08BF00F058
:103FB0000040704710B500F0F2F900BF64FBBE3E50
:103FC000401058BFC0F14040491058BFC1F14041B6
:103FD0008142EFF3008070474FF47F0C1CEAD0124F
:103FE0001EBF1CEAD11392EA0C0F93EA0C0F00F0EB
:103FF000858090EA010F48BF42F4807240F4000CC3
:1040000041F400002CF07F4120F07F4000B5814258
:10401000A2EB03020FF2081CACEB504EC0F1000003
:104020009EF800E04FEA4E0E00FB0EFC38BF490040
:104030004FEA2C1C02F5FA020CFB0EF34FEACE1EDF
:104040004FEA112C4FEAC1210EEB635E42EB224294
:104050000EFB0CFC4FEA1C5300FB03114FEA112C22
:104060004FEA01310EFB0CFC4FEADC4C00FB0C115B
:10407000C14228BF09184CEB03335DF804EB10EB89
:10408000410143EBC250B2F57C0F38BF704729D5D0
:1040900012F0F00F1CBF00F1C04000F0004070476C
:1040A000008182838485868788898B8C8D8E8F9111
:1040B0009293959697999A9C9D9FA0A2A3A5A7A835
:1040C000AAACAEB0B2B3B5B7B9BCBEC0C2C5C7C961
:1040D000CCCED1D4D7D9DCDFE2E6E9ECF0F3F7FAC5
:1040E000FE0000004FEA400C0CF1807CBCF17E4FDA
:1040F00028BF7047B0F1C04000F097B990EA010FB7
:104100000CEAD11348BF42F48072624538BF634560
:1041100007D213F47F0F16D080EA010000F00040B0
:10412000704710B500F03BF9097EFC3E00F005B881
:1041300080EA010000F00040704780EA010000F0D2
:10414000004000F072B912F47F0F04BF02487047BC
:1041500080EA010000F069B90000C07F50EA010C5C
:1041600000F113801CF5000F58BFBCF5000F01D4FF
:104170008842704707D710F5000F58BF11F5000FA0
:1041800015D488427047894270471CF5000F04D54A
:10419000BCF5000FF7D5814270474FF0807C1CEBD7
:1041A000400F38BF1CEB410F01D28142704710B560
:1041B00000F0F5F8922449004FF000504FF0805184
:1041C000FFF7FEBEC10DD1F19E0206DB4FEA0023D0
:1041D00043F0004323FA02F07047004207D54FEA4C
:1041E0004001B1F1FE4F02D24FF00000704710B510
:1041F00000F0D5F849922480002070476FEA200033
:104200007047000010F0004148BF4042B0FA80F310
:1042100010FA03F2C3F19D030BD051EAC35101EB35
:104220001220530638BF704700F1010008BF20F08C
:104230000100704750EA010C00F113801CF5000FDB
:1042400058BFBCF5000F01D48842704707D710F55E
:10425000000F58BF11F5000F15D4884270478942EE
:1042600070471CF5000F04D5BCF5000FF7D581424F
:1042700070474FF0807C1CEB400F38BF1CEB410FA8
:1042800001D28142704710B500F089F892244900AC
:104290004FF000504FF08051FFF792BE4FF47F0C6B
:1042A0001CEAD0121EBF1CEAD11392EA0C0F93EA4B
:1042B0000C0F00F0478090EA010F48BF42F4807273
:1042C0004FF0004C4CEA00204CEA012102EB0302C3
:1042D000A0FB0113A2F50002002918BF43F001035F
:1042E0005B0028BF4FEA330342EB22425FEA132C04
:1042F0004CEBC2502EBFBCEB436FB2F57C0F704746
:104300004FEA036CBCF1004F08BF20F00100B2F58A
:104310007C0F38BF70470BD582F0FF0212F5803F4B
:10432000C8BF704700F1C040D8BF00F000407047E0
:1043300000F5000C5FEA4C0C48BF7047B0F1C0407C
:1043400000F073B890EA010F0CEAD11348BF42F4B1
:104350008072624538BF634504D280EA010000F0F4
:104360000040704710B500F01AF800BF8900013E08
:1043700000F007B800F009B85FEA410C5FEA1C6C76
:1043800008D080EA010000F050B85FEA400C5FEA14
:104390001C6CF6D14FF00040A0F5800070470EF184
:1043A000020E2EF0030E5EF8044B244204D44FEAB2
:1043B0004102B2F17F4F11D84FEA4003B3F17F4F72
:1043C0000CD80ED14FEAD07CB2F17F4F0CEB4C0CE5
:1043D0000CF1020C08BF4CEBD17C04E04FF0080C50
:1043E00001E04FEAD17C0CEB4C0324FA03F404F017
:1043F0000704B4F1040C06D20EEB840CBDE81040A7
:104400004CF0010C6047DFE80CF0070802024FF0A7
:104410000040A0F5800010BD0846420018BFD2F150
:10442000807288BF00F0004010BDFF2141EAD050EB
:10443000C005704751EA000C00F113801CF5000F15
:1044400058BFBCF5000F01D48142704707D711F562
:10445000000F58BF10F5000F15D4814270478942F4
:1044600070471CF5000F04D5BCF5000FF7D5884246
:1044700070474FF0807C1CEB410F38BF1CEB400FA6
:1044800001D28842704780EA010081EA000180EA97
:104490000100FFF7F8BE000090EA010F48BF81F06D
:1044A00000413FF532AD421A04D882F00042A0EB41
:1044B000020011444FEAD0524FF07F4C1CEA410FEA
:1044C000A2EBD15318BF9CEA026F4AD04FF0004CC8
:1044D0004CEA00204CEA012121FA03FCB0EB0C0C61
:1044E0000FD412F0FE0F36D05FEA4C001DD500123B
:1044F00040EBC25038BF70471CF03F0F18BF7047E9
:104500000BE0A2F101025FEA1C2040EBC25038BF71
:1045100070471CF07F0F18BF7047C3F1200399400C
:1045200014BF401E20F00100704780084FEA12239C
:1045300008BF7047B0FA80FCA2EB0C02CCF1280C4B
:1045400060FA0CF093EA122F04BF00EBC2507047E0
:104550004FEAC3707047130A5FEADC1008BF704768
:10456000F6E79CEA026F04D010EA5C0F08BF002057
:10457000704710B5FFF713FF40DFF63E81F00040B3
:104580007047FBF7CCBF000002400000000000A015
:104590000000000005400000000000C8000000000E
:1045A0000C4000000000409C00000000194000008A
:1045B0000020BCBE0000000034400000BFC91B8EBC
:1045C00000000004B5400000504BCFD06607E2CF9A
:1045D000010000006C4100003E8251AADFEEA734CA
:1045E00001000000D9420000DCB5A0E23A301F977C
:1045F000FFFFFFFFB4450000FD25A0C8E9A3C14FA0
:10460000FFFFFFFFFF3F00000000008000000000F0
:10461000FF3F000000000080000000005846000836
:10462000000000206400000028010008BC460008CB
:104630006400002034090000440100081C00000050
:1046400043000000F8FFFFFF0C0000000E00000018
:104650000F0000002E000000FFFFFFFF00A24A0431
:104660000000000000000000010203040607080922
:1046700000000000FFFFFFFFFF55000000000102E7
:1046800003040102030406070809020406080000E7
:10469000000000000000000000000000000000001A
:1046A000000000000000000000000000000000000A
:0C46B000000000000000000000000000FE
:04000005080000ED02
:00000001FF
